{
  "_format": "hh-sol-artifact-1",
  "contractName": "WalletDataCache",
  "sourceName": "contracts/walletDataCache.sol",
  "abi": [
    {
      "inputs": [],
      "stateMutability": "nonpayable",
      "type": "constructor"
    },
    {
      "anonymous": false,
      "inputs": [
        {
          "indexed": true,
          "internalType": "address",
          "name": "wallet",
          "type": "address"
        },
        {
          "indexed": false,
          "internalType": "uint256",
          "name": "lastBlock",
          "type": "uint256"
        }
      ],
      "name": "WalletDataUpdated",
      "type": "event"
    },
    {
      "inputs": [
        {
          "internalType": "address",
          "name": "_wallet",
          "type": "address"
        }
      ],
      "name": "getWalletData",
      "outputs": [
        {
          "components": [
            {
              "internalType": "uint256",
              "name": "txIn",
              "type": "uint256"
            },
            {
              "internalType": "uint256",
              "name": "txOut",
              "type": "uint256"
            },
            {
              "internalType": "uint256",
              "name": "totalTxs",
              "type": "uint256"
            },
            {
              "internalType": "uint256",
              "name": "failedTxs",
              "type": "uint256"
            },
            {
              "internalType": "uint256",
              "name": "gasUsed",
              "type": "uint256"
            },
            {
              "internalType": "uint256",
              "name": "feePaid",
              "type": "uint256"
            },
            {
              "internalType": "uint256",
              "name": "contractsCreatedCount",
              "type": "uint256"
            },
            {
              "internalType": "uint256",
              "name": "distinctErc20Count",
              "type": "uint256"
            },
            {
              "internalType": "uint256",
              "name": "distinctNftCount",
              "type": "uint256"
            },
            {
              "internalType": "uint256",
              "name": "activeDaysCount",
              "type": "uint256"
            },
            {
              "internalType": "uint256",
              "name": "firstTxTimestamp",
              "type": "uint256"
            }
          ],
          "internalType": "struct WalletDataCache.WalletMetrics",
          "name": "",
          "type": "tuple"
        },
        {
          "internalType": "uint256",
          "name": "",
          "type": "uint256"
        }
      ],
      "stateMutability": "view",
      "type": "function"
    },
    {
      "inputs": [
        {
          "internalType": "address",
          "name": "",
          "type": "address"
        }
      ],
      "name": "lastProcessedBlock",
      "outputs": [
        {
          "internalType": "uint256",
          "name": "",
          "type": "uint256"
        }
      ],
      "stateMutability": "view",
      "type": "function"
    },
    {
      "inputs": [],
      "name": "owner",
      "outputs": [
        {
          "internalType": "address",
          "name": "",
          "type": "address"
        }
      ],
      "stateMutability": "view",
      "type": "function"
    },
    {
      "inputs": [
        {
          "internalType": "address",
          "name": "newOwner",
          "type": "address"
        }
      ],
      "name": "transferOwnership",
      "outputs": [],
      "stateMutability": "nonpayable",
      "type": "function"
    },
    {
      "inputs": [
        {
          "internalType": "address",
          "name": "_wallet",
          "type": "address"
        },
        {
          "components": [
            {
              "internalType": "uint256",
              "name": "txIn",
              "type": "uint256"
            },
            {
              "internalType": "uint256",
              "name": "txOut",
              "type": "uint256"
            },
            {
              "internalType": "uint256",
              "name": "totalTxs",
              "type": "uint256"
            },
            {
              "internalType": "uint256",
              "name": "failedTxs",
              "type": "uint256"
            },
            {
              "internalType": "uint256",
              "name": "gasUsed",
              "type": "uint256"
            },
            {
              "internalType": "uint256",
              "name": "feePaid",
              "type": "uint256"
            },
            {
              "internalType": "uint256",
              "name": "contractsCreatedCount",
              "type": "uint256"
            },
            {
              "internalType": "uint256",
              "name": "distinctErc20Count",
              "type": "uint256"
            },
            {
              "internalType": "uint256",
              "name": "distinctNftCount",
              "type": "uint256"
            },
            {
              "internalType": "uint256",
              "name": "activeDaysCount",
              "type": "uint256"
            },
            {
              "internalType": "uint256",
              "name": "firstTxTimestamp",
              "type": "uint256"
            }
          ],
          "internalType": "struct WalletDataCache.WalletMetrics",
          "name": "_metrics",
          "type": "tuple"
        },
        {
          "internalType": "uint256",
          "name": "_blockNumber",
          "type": "uint256"
        }
      ],
      "name": "updateWalletData",
      "outputs": [],
      "stateMutability": "nonpayable",
      "type": "function"
    },
    {
      "inputs": [
        {
          "internalType": "address",
          "name": "",
          "type": "address"
        }
      ],
      "name": "walletMetricsCache",
      "outputs": [
        {
          "internalType": "uint256",
          "name": "txIn",
          "type": "uint256"
        },
        {
          "internalType": "uint256",
          "name": "txOut",
          "type": "uint256"
        },
        {
          "internalType": "uint256",
          "name": "totalTxs",
          "type": "uint256"
        },
        {
          "internalType": "uint256",
          "name": "failedTxs",
          "type": "uint256"
        },
        {
          "internalType": "uint256",
          "name": "gasUsed",
          "type": "uint256"
        },
        {
          "internalType": "uint256",
          "name": "feePaid",
          "type": "uint256"
        },
        {
          "internalType": "uint256",
          "name": "contractsCreatedCount",
          "type": "uint256"
        },
        {
          "internalType": "uint256",
          "name": "distinctErc20Count",
          "type": "uint256"
        },
        {
          "internalType": "uint256",
          "name": "distinctNftCount",
          "type": "uint256"
        },
        {
          "internalType": "uint256",
          "name": "activeDaysCount",
          "type": "uint256"
        },
        {
          "internalType": "uint256",
          "name": "firstTxTimestamp",
          "type": "uint256"
        }
      ],
      "stateMutability": "view",
      "type": "function"
    }
  ],
  "bytecode": "0x60806040523480156200001157600080fd5b50336000806101000a81548173ffffffffffffffffffffffffffffffffffffffff021916908373ffffffffffffffffffffffffffffffffffffffff160217905550620000996040518060400160405280601c81526020017f57616c6c6574446174614361636865206465706c6f7965642062793a00000000815250336200009f60201b60201c565b620002f1565b620001418282604051602401620000b89291906200028e565b6040516020818303038152906040527f319af333000000000000000000000000000000000000000000000000000000007bffffffffffffffffffffffffffffffffffffffffffffffffffffffff19166020820180517bffffffffffffffffffffffffffffffffffffffffffffffffffffffff83818316178352505050506200014560201b60201c565b5050565b6200016b81620001666200016e60201b620005b1176200018f60201b60201c565b60201c565b50565b60006a636f6e736f6c652e6c6f679050600080835160208501845afa505050565b620001a360201b620005d217819050919050565b620001ad620002c2565b565b600081519050919050565b600082825260208201905092915050565b60005b83811015620001eb578082015181840152602081019050620001ce565b60008484015250505050565b6000601f19601f8301169050919050565b60006200021582620001af565b620002218185620001ba565b935062000233818560208601620001cb565b6200023e81620001f7565b840191505092915050565b600073ffffffffffffffffffffffffffffffffffffffff82169050919050565b6000620002768262000249565b9050919050565b620002888162000269565b82525050565b60006040820190508181036000830152620002aa818562000208565b9050620002bb60208301846200027d565b9392505050565b7f4e487b7100000000000000000000000000000000000000000000000000000000600052605160045260246000fd5b610d6880620003016000396000f3fe608060405234801561001057600080fd5b50600436106100625760003560e01c806331e0943514610067578063857923c4146100a15780638da5cb5b146100d2578063900ed364146100f0578063c6daefa11461010c578063f2fde38b1461013c575b600080fd5b610081600480360381019061007c9190610699565b610158565b6040516100989b9a999897969594939291906106df565b60405180910390f35b6100bb60048036038101906100b69190610699565b6101b2565b6040516100c992919061087a565b60405180910390f35b6100da6102c1565b6040516100e791906108b4565b60405180910390f35b61010a60048036038101906101059190610920565b6102e5565b005b61012660048036038101906101219190610699565b610459565b6040516101339190610975565b60405180910390f35b61015660048036038101906101519190610699565b610471565b005b600160205280600052604060002060009150905080600001549080600101549080600201549080600301549080600401549080600501549080600601549080600701549080600801549080600901549080600a015490508b565b6101ba6105dc565b6000600160008473ffffffffffffffffffffffffffffffffffffffff1673ffffffffffffffffffffffffffffffffffffffff168152602001908152602001600020600260008573ffffffffffffffffffffffffffffffffffffffff1673ffffffffffffffffffffffffffffffffffffffff16815260200190815260200160002054816040518061016001604052908160008201548152602001600182015481526020016002820154815260200160038201548152602001600482015481526020016005820154815260200160068201548152602001600782015481526020016008820154815260200160098201548152602001600a82015481525050915091509150915091565b60008054906101000a900473ffffffffffffffffffffffffffffffffffffffff1681565b60008054906101000a900473ffffffffffffffffffffffffffffffffffffffff1673ffffffffffffffffffffffffffffffffffffffff163373ffffffffffffffffffffffffffffffffffffffff1614610373576040517f08c379a000000000000000000000000000000000000000000000000000000000815260040161036a90610a13565b60405180910390fd5b81600160008573ffffffffffffffffffffffffffffffffffffffff1673ffffffffffffffffffffffffffffffffffffffff16815260200190815260200160002081816103bf9190610c63565b90505080600260008573ffffffffffffffffffffffffffffffffffffffff1673ffffffffffffffffffffffffffffffffffffffff168152602001908152602001600020819055508273ffffffffffffffffffffffffffffffffffffffff167fda6102595b495e30e87406576124699801d5eee5a96249fc5e28cc98b0d9cd6c8260405161044c9190610975565b60405180910390a2505050565b60026020528060005260406000206000915090505481565b60008054906101000a900473ffffffffffffffffffffffffffffffffffffffff1673ffffffffffffffffffffffffffffffffffffffff163373ffffffffffffffffffffffffffffffffffffffff16146104ff576040517f08c379a00000000000000000000000000000000000000000000000000000000081526004016104f690610a13565b60405180910390fd5b600073ffffffffffffffffffffffffffffffffffffffff168173ffffffffffffffffffffffffffffffffffffffff160361056e576040517f08c379a000000000000000000000000000000000000000000000000000000000815260040161056590610ce3565b60405180910390fd5b806000806101000a81548173ffffffffffffffffffffffffffffffffffffffff021916908373ffffffffffffffffffffffffffffffffffffffff16021790555050565b60006a636f6e736f6c652e6c6f679050600080835160208501845afa505050565b6105da610d03565b565b60405180610160016040528060008152602001600081526020016000815260200160008152602001600081526020016000815260200160008152602001600081526020016000815260200160008152602001600081525090565b600080fd5b600073ffffffffffffffffffffffffffffffffffffffff82169050919050565b60006106668261063b565b9050919050565b6106768161065b565b811461068157600080fd5b50565b6000813590506106938161066d565b92915050565b6000602082840312156106af576106ae610636565b5b60006106bd84828501610684565b91505092915050565b6000819050919050565b6106d9816106c6565b82525050565b6000610160820190506106f5600083018e6106d0565b610702602083018d6106d0565b61070f604083018c6106d0565b61071c606083018b6106d0565b610729608083018a6106d0565b61073660a08301896106d0565b61074360c08301886106d0565b61075060e08301876106d0565b61075e6101008301866106d0565b61076c6101208301856106d0565b61077a6101408301846106d0565b9c9b505050505050505050505050565b610793816106c6565b82525050565b610160820160008201516107b0600085018261078a565b5060208201516107c3602085018261078a565b5060408201516107d6604085018261078a565b5060608201516107e9606085018261078a565b5060808201516107fc608085018261078a565b5060a082015161080f60a085018261078a565b5060c082015161082260c085018261078a565b5060e082015161083560e085018261078a565b5061010082015161084a61010085018261078a565b5061012082015161085f61012085018261078a565b5061014082015161087461014085018261078a565b50505050565b6000610180820190506108906000830185610799565b61089e6101608301846106d0565b9392505050565b6108ae8161065b565b82525050565b60006020820190506108c960008301846108a5565b92915050565b600080fd5b600061016082840312156108eb576108ea6108cf565b5b81905092915050565b6108fd816106c6565b811461090857600080fd5b50565b60008135905061091a816108f4565b92915050565b60008060006101a0848603121561093a57610939610636565b5b600061094886828701610684565b9350506020610959868287016108d4565b92505061018061096b8682870161090b565b9150509250925092565b600060208201905061098a60008301846106d0565b92915050565b600082825260208201905092915050565b7f57616c6c65744461746143616368653a2043616c6c6572206973206e6f74207460008201527f6865206f776e6572000000000000000000000000000000000000000000000000602082015250565b60006109fd602883610990565b9150610a08826109a1565b604082019050919050565b60006020820190508181036000830152610a2c816109f0565b9050919050565b60008135610a40816108f4565b80915050919050565b60008160001b9050919050565b60007fffffffffffffffffffffffffffffffffffffffffffffffffffffffffffffffff610a8284610a49565b9350801983169250808416831791505092915050565b6000819050919050565b6000610abd610ab8610ab3846106c6565b610a98565b6106c6565b9050919050565b6000819050919050565b610ad782610aa2565b610aea610ae382610ac4565b8354610a56565b8255505050565b600081016000830180610b0381610a33565b9050610b0f8184610ace565b505050600181016020830180610b2481610a33565b9050610b308184610ace565b505050600281016040830180610b4581610a33565b9050610b518184610ace565b505050600381016060830180610b6681610a33565b9050610b728184610ace565b505050600481016080830180610b8781610a33565b9050610b938184610ace565b5050506005810160a0830180610ba881610a33565b9050610bb48184610ace565b5050506006810160c0830180610bc981610a33565b9050610bd58184610ace565b5050506007810160e0830180610bea81610a33565b9050610bf68184610ace565b50505060088101610100830180610c0c81610a33565b9050610c188184610ace565b50505060098101610120830180610c2e81610a33565b9050610c3a8184610ace565b505050600a8101610140830180610c5081610a33565b9050610c5c8184610ace565b5050505050565b610c6d8282610af1565b5050565b7f57616c6c65744461746143616368653a204e6577206f776e657220697320746860008201527f65207a65726f2061646472657373000000000000000000000000000000000000602082015250565b6000610ccd602e83610990565b9150610cd882610c71565b604082019050919050565b60006020820190508181036000830152610cfc81610cc0565b9050919050565b7f4e487b7100000000000000000000000000000000000000000000000000000000600052605160045260246000fdfea2646970667358221220e0f69642288fb56e7cb6a86a74a832a67d3abff026a812d23844cd23b9518de864736f6c63430008180033",
  "linkReferences": {},
  "deployedLinkReferences": {}
}